:100000000C9413030C94D6030C9400000C94000081
:100010000C9400000C9400000C9400000C94000060
:100020000C9400000C9400000C9400000C94000050
:100030000C9400000C9400000C9400000C94000040
:100040000C946D030C9421040C9476030C94000022
:100050000C94B0030C94FA030C9400000C94000070
:100060000C9400000C940000000102030405060734
:1000700008090C0D1115191A203844474A4E5256DA
:1000800057585C60616265696D71757B8687888988
:1000900026010203040506070809090900000000FB
:1000A0000000000000000000000A0B0B0B0B00001A
:1000B0000000000000000000000000000000000040
:1000C00000000C0C0C0C0D0D0D0D000000000000CC
:1000D00000000000000000000000000C0C0C0C0AE6
:1000E0000D0D0D0D000000000000000000000000DC
:1000F000000000000E0000000000000000000000F2
:1001000000000000000000000000000000260102C6
:1001100003040506070809090900000000000000A3
:10012000000000000000101010101010101010102F
:100130001010101010101010101010101010000FD0
:100140000F0F0F0F0F1111111111111111111111A9
:1001500011121212000000001313130A14141414C5
:1001600015151515161616160000000000000000E3
:100170000017180A191919191A1A1A1A27272727DE
:100180001B1C00000000000000001D1D1D000000E1
:10019000000000000000000000000000000000005F
:1001A000000000101010101010101010101010107F
:1001B0001010101010101010101010000F0F0F0F53
:1001C0000F0F111111111111111111111111121221
:1001D00012000000001D1D1D0000000000000000B6
:1001E00000000000000000000000000000000A19EC
:1001F0001919191A1A1A1A0000000000000000004C
:1002000000000000000000000000000000000000EE
:1002100000000000000000000000000000000000DE
:1002200000000000000000000000000000000000CE
:1002300000000000000000000000000000000000BE
:1002400000000000000000000000000000000000AE
:1002500000001E0000000000000000000000000080
:10026000000000000000000000000000000000008E
:10027000000000000000000000000000000000007E
:10028000000000000000000000000000000000006E
:10029000000000000000000000000000000000005E
:1002A000000000000000000000000000000000004E
:1002B0000000000000000A00000000000000000034
:1002C0000000000000000000000000000000001F0F
:1002D0001F1F0000000000000000000000000000E0
:1002E00000000000000000002020200000000000AE
:1002F00000000000000000000000000000000000FE
:1003000000210000000000000000000000000000CC
:100310000000000000000000000022222222222211
:10032000272727272727272723232323232323237D
:10033000232300131313000000000000000000003E
:1003400000000000000000000000000003000000AA
:10035000000000000000000000000000000000009D
:100360000000000000240000000000000000000069
:100370000000000000000000000000000000250058
:10038000000000000000000000000000000000006D
:10039000000000000000000000010203060B0C0D2D
:1003A0000E0F101112132324252628292A2B2C2D59
:1003B0002E2F30313B6C6D0000000001000000006A
:1003C000000001010101010101010101010101011F
:1003D0000100010101010001010100000000000015
:1003E000000000000000000000000000000000000D
:1003F0000000000101000000C0C1C1810140C30133
:1004000003C00280C241C60106C00780C741050083
:10041000C5C1C4810440CC010CC00D80CD410F008A
:10042000CFC1CE810E400A00CAC1CB810B40C901A9
:1004300009C00880C841D80118C01980D9411B00E3
:10044000DBC1DA811A401E00DEC1DF811F40DD0101
:100450001DC01C80DC411400D4C1D5811540D701DA
:1004600017C01680D641D20112C01380D3411100AB
:10047000D1C1D0811040F00130C03180F141330052
:10048000F3C1F28132403600F6C1F7813740F50101
:1004900035C03480F4413C00FCC1FD813D40FF018A
:1004A0003FC03E80FE41FA013AC03B80FB4139002B
:1004B000F9C1F88138402800E8C1E9812940EB0101
:1004C0002BC02A80EA41EE012EC02F80EF412D0083
:1004D000EDC1EC812C40E40124C02580E5412700DA
:1004E000E7C1E68126402200E2C1E3812340E10129
:1004F00021C02080E041A00160C06180A141630073
:10050000A3C1A28162406600A6C1A7816740A50180
:1005100065C06480A4416C00ACC1AD816D40AF0189
:100520006FC06E80AE41AA016AC06B80AB416900AA
:10053000A9C1A88168407800B8C1B9817940BB01E0
:100540007BC07A80BA41BE017EC07F80BF417D0002
:10055000BDC1BC817C40B40174C07580B5417700D9
:10056000B7C1B68176407200B2C1B3817340B101A8
:1005700071C07080B041500090C191815140930191
:1005800053C052809241960156C057809741550002
:1005900095C1948154409C015CC05D809D415F0089
:1005A0009FC19E815E405A009AC19B815B40990128
:1005B00059C058809841880148C0498089414B0002
:1005C0008BC18A814A404E008EC18F814F408D0180
:1005D0004DC04C808C41440084C1858145408701D9
:1005E00047C046808641820142C04380834141002A
:1005F00081C1808140400000803F01000200010075
:100600000500010001002D4E414E000001007B025B
:10061000FE0501007D020006020003000206010043
:10062000DC0204060000F894EE27EFBBF1E0F5BF12
:10063000E5BFF8E1A895A4B7A77FA4BFF093600039
:10064000E09360008DE0A2E0BB27ED938A95E9F787
:1006500080E094E0A0E0B1E0ED930197E9F7ECE0F1
:10066000F6E085919591009761F0A591B59105907F
:100670001590BF01F00105900D920197E1F7FB0184
:10068000F0CFE0E0EEBBEFEFEDBFE4E0EEBFC0E0A7
:10069000D2E00C94520D65917491E62FF72F2296BB
:1006A0000895EE2DF070DF01E881F0E0AE27BF275E
:1006B000EFEFF0E0EA23FB23A6EFB3E0EE0FFF1F1E
:1006C000EA0FFB1F0E94550EDF01FD2DE0E0EA2737
:1006D000FB27DE2EEF2E21960895EA93E1E0EDBB95
:1006E000ECBBE0E0E0936900E9911895AA93BA9316
:1006F000EA93FA93EFB7EA931A930A93F894109156
:10070000C0000091C600A12FB0E0ECE1F0E0EA23C8
:10071000FB233097D9F4E0917002F0E0E85FFD4FE1
:100720000083A0917002AF5FA0937002A03419F40F
:10073000E0E0E0937002A0917202AF5FA0937202BA
:10074000A03421F4E0E0E0937202F09A78940991E9
:100750001991E991EFBFF991E991B991A991189592
:10076000AA93EA93FA93EFB7EA93F894E091DB0245
:10077000E030A9F0E150E093DB02E091DA02F0E032
:10078000E656FD4FE081E093C600A091DA02AF5F2C
:10079000A093DA02A03419F4E0E0E093DA0278944E
:1007A000E991EFBFF991E991A9911895AA93EA937C
:1007B000FA93EFB7EA93A0916900A33071F45B9AC2
:1007C000E091C100F0E0E07CF070E061E093C100F6
:1007D000E0E0E0936900F49807C0E3E0E09369008B
:1007E000E0ECE093C100F49AE991EFBFF991E9914F
:1007F000A99118956A937A938A93EA93FA93EFB73B
:10080000EA9382E08A95F1F7E0917800F09179001F
:1008100066277727E0937302F09374026093750262
:1008200070937602F19AE0E2E0937C00EFE4E093CB
:100830007A00E991EFBFF991E991899179916991F4
:100840001895EA93EFB7EA93E0917B02E03031F438
:10085000EFEFEEBDE1E0E0937B0201C02A98EFEC00
:10086000E0937A00E991EFBFE991189582E08A95CB
:10087000F1F72A98A881A23070F4E881EEBDE0304B
:1008800019F4E0E0FCE302C0E0E0F0E6E983FA837B
:10089000EDB5E038E8F3A881A33019F4E0E0E9838E
:1008A000EA83A881A23079F4A0917702B09178020E
:1008B0008091790290917A02E0E10E94190EEEBDDA
:1008C000EDB5E038E8F3EA81F070EEBD2A98EDB5B9
:1008D000E038E8F3E981FA81EEBDEDB5E038E8F300
:1008E000239608951A930A9325D38F01F59B1CC074
:1008F000002E012A69F4E0E0E0937C02E0937002AC
:10090000F098E0918002EA939CD10E2B1F2B08C037
:100910005B9AF098E0E0E0937C02E0937002F49838
:100920001A930A9314D00FC0F098E0E0E0937C0291
:10093000E0937002E091C100F0E0E07CF070E061D3
:10094000E093C1005B9A3DD40991199108950E94EA
:10095000441010E000E030E0A091C000A032E0F3CD
:10096000A3E0B0E00E94730EE0937D02E9E1F0E0C5
:10097000FA93EA930E94010E5B98E091C100F0E0C7
:10098000E07CF070E860E093C100EFE0F0E0FA9303
:10099000EA930E94010E10E0E0917D021E1768F4B8
:1009A000E12FF0E0E656FD4FAFEFA083E091DB02D0
:1009B000EF5FE093DB021F5FEFCFF69B06C0E12FF6
:1009C000F0E0E656FD4FA1E005C0E12FF0E0E6566D
:1009D000FD4FA6E0A083A32FBB27E12FF0E0E65652
:1009E000FD4FE081F0E0EA273E2F1F5FE12FF0E0AE
:1009F000BF01E656FD4F0F01A0917E02BB27E0919B
:100A00007D02F0E0AE1BBF0BFB01EA0FFB1FE85FAE
:100A1000FD4FE081D001EC93A32FBB27E12FF0E045
:100A2000E656FD4FE081F0E0EA273E2F1F5FE12F01
:100A3000F0E0BF01E656FD4F0F01A0917E02BB27FB
:100A4000E0917D02F0E0AE1BBF0BFB01EA0FFB1F44
:100A5000E85FFD4FE081D001EC93A32FBB27E12F8E
:100A6000F0E0E656FD4FE081F0E0EA273E2F1F5F01
:100A7000EC81FD81309711F00C949205A12FB0E02C
:100A8000A656BD4FE0917F02F0E03296EC93A32F83
:100A9000BB27E12FF0E0E656FD4FE081F0E0EA27CA
:100AA0003E2F1F5FE12FF0E0E656FD4FA0916F0251
:100AB000A083A32FBB27E12FF0E0E656FD4FE08196
:100AC000F0E0EA273E2F1F5FE12FF0E0E656FD4FF2
:100AD000A0E0A083A32FBB27E12FF0E0E656FD4F57
:100AE000E081F0E0EA273E2F1F5F00E0E0917F0207
:100AF0000E17B8F4A12FB0E0A656BD4FE02FF0E0DE
:100B0000EF57FD4FE081EC93A32FBB27E12FF0E0DF
:100B1000E656FD4FE081F0E0EA273E2F1F5F0F5FB2
:100B2000E5CF6EC0A12FB0E0A656BD4FE0916D029B
:100B3000F0E03296EC93A32FBB27E12FF0E0E656CE
:100B4000FD4FE081F0E0EA273E2F1F5FA12FB0E0CC
:100B5000A656BD4FEC81FD810E942A0EEC93A32F77
:100B6000BB27E12FF0E0E656FD4FE081F0E0EA27F9
:100B70003E2F1F5FE12FF0E0E656FD4FAC81A083D2
:100B8000A32FBB27E12FF0E0E656FD4FE081F0E018
:100B9000EA273E2F1F5F012F102FA0916D02BB2768
:100BA000E02FF0E0EA0FFB1FA12FB0E0AE17BF0768
:100BB0003CF5E12FF0E0E656FD4FBF01A0917E022B
:100BC000BB27E0917D02F0E0AE1BBF0BEE27A10F2B
:100BD000BE1FE2E0F0E00E94640EEA1BFB0BE85F40
:100BE000FD4FE081DB01EC93A32FBB27E12FF0E069
:100BF000E656FD4FE081F0E0EA273E2F1F5FCDCFA4
:100C0000E12FF0E0E656FD4F3083E1E0E093DA02B9
:100C10001093DB02E0919A02E093C600E091DB02C0
:100C2000E030E1F7EFE0F0E0FA93EA930E94010E82
:100C30005B9AF498E0E0E09372020E944B102696D3
:100C400008952797E0E0EC83ED83EE830E94421045
:100C500010E000E030E020E050E041E010E01F3123
:100C600068F4E12FF0E0E856FC4FE491AE2FED85FB
:100C7000EA1711F440E01A871F5FF1CF403011F0FE
:100C80000C941C07E7EBF3E0DF01EA85F0E0EA0FE4
:100C9000FB1F5491E6EDF3E0DF01EA85F0E0EA0F97
:100CA000FB1F24915030E9F000E0E0916D02F0E08C
:100CB0003196A02FB0E0AE17BF0764F4A02FB0E0CC
:100CC000AF57BD4FE02FF0E0E85BFD4FE081EC93C4
:100CD0000F5FEBCFEA85E0936E02EA93B3D000E0BA
:100CE000ABC0EA85A9E1EA9FF001E057FF4FDF01C1
:100CF000E02FF0E0EA0FFB1F04900C8600E00831C3
:100D000010F00C941907EA85A9E1EA9FF001E05779
:100D1000FF4FDF01E02FF0E0EA0FFB1FE491AC850D
:100D2000EA1711F40C94F806A02FBB27EB85F0E02E
:100D30000E94640EEA1B3E2F301710F00C94F6064A
:100D4000AC85EBE00E94340E0E2EEDE00E94390ED1
:100D5000E02909F1E32FF0E0EF57FD4FCF01EC85DB
:100D6000F0E0E859FF4F64917727A32FBB27EB856D
:100D7000F0E0AE0FBF1FE02FF0E00E94640EEA1B10
:100D8000FB0BE60FF71FE050F040DF010E94730EEF
:100D9000DC01EC9329C0F894EC85F0E03B97A1E6E8
:100DA000B2E00E94250EAE0FBF1F0E944A0EEE83D6
:100DB000FF8368877987E32FF0E0EF57FD4FBF018E
:100DC000A32FBB27EB85F0E0AE0FBF1FE02FF0E0B5
:100DD0000E94640EEA1BFB0BDE011696AE0FBF1FCE
:100DE000EC91DB01EC9378943F5FA6CFE0E0EB87DA
:100DF000EA85A9E1EA9FF001E057FF4FDF01E02F0C
:100E0000F0E0EA0FFB1F04900C86EB85EF5FEB87A9
:100E1000EA85A9E1EA9FF001E057FF4FDF01E02FEB
:100E2000F0E0EA0FFB1FE491E03009F408E10F5F06
:100E300066CF30937F0230E0E42FF0E00E9449104B
:100E40002E9608950E94421010E000E030E020E06D
:100E500050E0EE81A9E1EA9FF001E057FF4F2491B5
:100E600000E0E0916D02F0E03196A02FB0E0AE1707
:100E7000BF0714F00C949607EE81A9E1EA9FF001F8
:100E8000E057FF4FDF01E02FF0E0EA0FFB1FE49196
:100E9000E21751F1A02FBB27E52FF0E00E94640E6E
:100EA000EA1B3E2F3017F8F4E22FF0E0E859FF4F2D
:100EB00064917727A32FBB27EE27A50FBE1FE02F36
:100EC000F0E00E94640EEA1BFB0BE60FF71FE050F8
:100ED000F040DF01E32FF0E0EF57FD4FE0810E948B
:100EE0008F0E3F5FDFCF50E0EE81A9E1EA9FF00176
:100EF000E057FF4FDF01E02FF0E0EA0FFB1F2491E6
:100F00005F5FEE81A9E1EA9FF001E057FF4FDF014B
:100F1000E02FF0E0EA0FFB1FE491E03029F4E091CC
:100F20006D02F0E031960E2F0F5F9BCF0E944910AB
:100F3000279608952297E0E0E883E9830E94421013
:100F400010E000E030E020E050E0E0937C02F59A11
:100F5000E02FF0E0E85FFD4FE081EF3F41F4093022
:100F600020F0E0E9E0937C0225C10F5FF1CF009310
:100F70007E02102FE02FF0E0E85FFD4FE081E230CD
:100F800019F0E2E0E0937C02E12FF0E0E85FFD4F32
:100F9000E081F0E0AE81BF81EA27FB27EE83FF838B
:100FA0001F5FE12FF0E0E85FFD4FE081F0E0E073CC
:100FB00019F0E0E9E0937C02E12FF0E0E85FFD4FFB
:100FC000E081F0E0EF70F0700F01A9E1B0E00E9465
:100FD000730ED001F0E0EA17FB0711F4F59A01C097
:100FE000F598E12FF0E0E85FFD4FE081F0E0AE81A1
:100FF000BF81EA27FB27EE83FF831F5FE12FF0E02D
:10100000E85FFD4FE081E0938002A0918002A6326C
:1010100019F4E0E0EA9306D4A0918002AB32D1F457
:10102000F894EA2DA4E1B1E0F0E0EE0FFF1FAE0F5F
:10103000BF1FE0917302F09174020E94870E5090DE
:10104000730260907402A5E2B1E0E1E00E948F0EAD
:10105000789475D3A0918002AD32B1F420E02430B1
:1010600098F4E22FF0E0BF01E759FF4F0F01E12FA5
:10107000F0E03296E60FF71FE85FFD4FE081D00108
:101080000E948F0E2F5FEBCFA0918002AE32B1F4A1
:1010900020E0243098F4E22FF0E0BF01E359FF4F45
:1010A0000F01E12FF0E03296E60FF71FE85FFD4FEA
:1010B000E081D0010E948F0E2F5FEBCFA0918002C4
:1010C000AF36D1F4F894EA2DACE1B1E0F0E0EE0FE8
:1010D000FF1FAE0FBF1FE0917302F09174020E94D8
:1010E000870E7090730280907402A5E2B1E0E1E097
:1010F0000E948F0E789423D3E12FF0E0E85FFD4F3C
:10110000E081F0E0AE81BF81EA27FB27EE83FF8319
:101110001F5FE12FF0E0E85FFD4FE081E0936D029B
:10112000E12FF0E0E85FFD4FE081F0E0AE81BF81AC
:10113000EA27FB27EE83FF831F5F512F052F152F13
:10114000A52FBB27E0916D02F0E0EA0FFB1FA12F56
:10115000B0E0AE17BF07D4F40F5FA32FB0E0A85BD9
:10116000BD4FE12FF0E0E85FFD4FE081EC93E12F10
:10117000F0E0E85FFD4FE081F0E0AE81BF81EA275B
:10118000FB27EE83FF833F5F1F5FDACF101719F055
:10119000E0E9E0937C02E12FF0E0E85FFD4FE081C1
:1011A000AE2FEE81FF81B0E0EA17FB0719F0E8E807
:1011B000E0937C02E0917C02F0E00E9449102896C6
:1011C00008951A9310E010E0103468F4E12FF0E075
:1011D000E85FFD4FA0E0A083E12FF0E0E656FD4F71
:1011E000A0831F5FF1CF10E0193168F4E12FF0E028
:1011F000E85BFD4FA0E0A083E12FF0E0EF57FD4F4B
:10120000A0831F5FF1CF19910895A895E8E3E093BB
:101210006000EEE0E0936000E0E0E5B9ECE2E4B904
:10122000E0E0E8B9E7B9539A5B9A569A579A5E9804
:101230005F98E0936E00E4BDE5BDE6BDE093C000BD
:10124000E0ECE093C100E6E0E093C200E0E0E09370
:10125000C500E7E1E093C400E0E0E0938000E093A4
:101260008100E0938500E0938400E0938700E093A1
:101270008600E0938900E0938800E0938B00E09380
:101280008A00E093B600E093B000E093B100E093F1
:10129000B200E093B300E093B400E3E0E0936900B0
:1012A000E1E0EDBBECBBE0E0E0936800E0936E00B2
:1012B000E0936F00E0937000E0E8E0BFE0E0E093CF
:1012C0007B00EFE3E0937E00E0E2E0937C00EFEC54
:1012D000E0937A00E0917B00E03029F4E0E0E03038
:1012E00011F4E0E001C0E1E0E0937B00E3E5ECBD58
:1012F000E0E0EDBD08956C97E0E0EC83ED83EE83D4
:10130000EF831A930A9300E010E01430E0F4E12F29
:10131000F0E0BF01DE011296EA0FFB1F0F01FB0197
:10132000E85AFF4FDF010E94730ED001EC93133097
:1013300041F4EA81FB816C817D81EE87FF87688BB8
:10134000798B1F5FE2CF10E01430E0F4E12FF0E082
:10135000BF01DE011296EA0FFB1F0F01FB01E45AE9
:10136000FF4FDF010E94730ED001EC93133041F464
:10137000EA81FB816C817D81EA8BFB8B6C8B7D8BA1
:101380001F5FE2CF10E01430E0F4E12FF0E0BF0186
:10139000DE011296EA0FFB1F0F01FB01E759FF4F19
:1013A000DF010E94730ED001EC93133041F4EA8107
:1013B000FB816C817D81EA8FFB8F6C8F7D8F1F5F3E
:1013C000E2CF10E01430E0F4E12FF0E0BF01DE01E5
:1013D0001296EA0FFB1F0F01FB01E359FF4FDF01DC
:1013E0000E94730ED001EC93133041F4EA81FB812B
:1013F0006C817D81EE8BFF8B688F798F1F5FE2CFD1
:10140000A0917302B091740280917502909176025E
:101410000E943C10ECF5E0917302F091740260912F
:101420007502709176020E94060FDF01CB01E091F8
:101430000002F091010260910202709103020E9489
:10144000D70FA0910402B0910502809106029091FD
:1014500007020E94390F0E94CF0EEE83FF83688738
:101460007987AE81BF8188859985A13CEFEFBE0762
:10147000E0E08E07E0E09E0744F0E0ECFFEF60E084
:1014800070E0EE83FF8368877987A985AA232AF411
:10149000E0E0EE83EF83E887E987AA8DBB8D8C8D32
:1014A0009D8DEE89FF89688D798D0E94390FDF014E
:1014B000CB01E0E0F0E060E871E40E94D70FAE817C
:1014C000BF81888599850E945B0E0E94890F0E94CA
:1014D000CF0E7F936F93FF93EF93AA8DBB8D8C8D6F
:1014E0009D8DE8E0F0E260E879E30E94D70F0E946A
:1014F000CF0E66277727AF91BF918F919F910E9462
:101500002F0E0E940C0EE0937702F0937802609306
:10151000790270937A02EA8DFB8D6C8D7D8DA0919E
:101520007702B09178028091790290917A020E94BC
:101530005B0E0E941C1019F010F00C94A90AEA8DA1
:10154000FB8D6C8D7D8DA7E7B2E00E94CF0E0E94CF
:10155000500EE0917702F0917802609179027091DB
:101560007A020E94060FA8E0B0E280E899E30E94A8
:10157000890FE0936502F0936602609367027093AF
:101580006802E0916502F0916602609167027091D5
:101590006802AA8DBB8D8C8D9D8D0E94390FA0E0B5
:1015A000B0E088EC92E40E94890F7F936F93FF93E1
:1015B000EF93AA8DBB8D8C8D9D8DEE89FF89688DF3
:1015C000798D0E94390FAF91BF918F919F910E94A9
:1015D000D70FE0936902F0936A0260936B027093F5
:1015E0006C02AA89BB898C899D89EE85FF856889F3
:1015F00079890E94390FE030A0E0FA07A0E26A077B
:10160000A1E47A0719F45F985E98AA24AA89BB8995
:101610008C899D89EE85FF85688979890E94390FBB
:10162000E030A0E0FA07A0EA6A07A1E47A0721F413
:101630005F985E9AE1E0AE2EAA89BB898C899D896C
:10164000EE85FF85688979890E94390FE030A0E036
:10165000FA07A0EF6A07A1E47A0721F45F9A5E987F
:10166000E2E0AE2EAA89BB898C899D89EE85FF8533
:10167000688979890E94390FE030A0E0FA07A8E470
:101680006A07A2E47A0721F45F9A5E9AE3E0AE2E3D
:10169000A4E2B1E00E94730EAE1649F1EA2DA6E372
:1016A000B1E0F0E00E94250EAE0FBF1F0E946B0E4E
:1016B000E0930402F0930502609306027093070220
:1016C000EA2DA6E2B1E0F0E00E94250EAE0FBF1FAA
:1016D0000E946B0EE0930002F093010260930202FD
:1016E00070930302EA2DA4E2B1E00E948F0EAA8952
:1016F000BB898C899D89EE85FF85688979890E94DF
:10170000390FDF01CB01E0E0F0E068EC72E40E9409
:10171000D70FA0916902B0916A0280916B029091FB
:101720006C020E94890FE0936102F0936202609361
:10173000630270936402198108816E9608950E9475
:10174000441007EF12EF29EC3CE0E72DF82DE519E6
:10175000F609BE2ECF2EEB2DFC2D662777270E9493
:10176000060FDF01CB01E0E0F7EF62E777E40E94CC
:10177000D70FE0930002F09301026093020270938E
:101780000302EA2DA6E2B1E0F0E00E94250EAE0FC2
:10179000BF1FE0910002F09101026091020270917E
:1017A00003020E947F0EE52DF62D0E942F0E0E944F
:1017B000060F7F936F93FF93EF93F901A0910002BF
:1017C000B09101028091020290910302662777276F
:1017D0000E94060F0E94890FAF91BF918F919F9138
:1017E0000E945E0E0E94390FE0930402F0930502FE
:1017F0006093060270930702EA2DA6E3B1E0F0E0E1
:101800000E94250EAE0FBF1FE0910402F091050269
:1018100060910602709107020E947F0E0E944B1099
:10182000249608951A930A9300E010E000E010E077
:101830000B38E0E01E07C4F4E2E6F0E0E017F10741
:1018400019F404E610E00DC0F801E050F0400F017B
:10185000AAE8B0E0A00FB11F0E94730ED0010E9451
:101860008F0E0F5F1F4FE4CF00E010E00430E0E088
:101870001E079CF5F801A6E3B1E00E94250EAE0F0D
:10188000BF1FE0E0F0E060E070E00E947F0EF80132
:10189000A6E2B1E00E94250EAE0FBF1FE0E0F0E02F
:1018A00060E87FE30E947F0EF801A4E1B1E0EE0F53
:1018B000FF1FAE0FBF1FE9ECFCE00E94870EF8018E
:1018C000ACE1B1E0EE0FFF1FAE0FBF1FE0ECFFEF8A
:1018D0000E94870E0F5F1F4FC9CFE0E0F0E060E08D
:1018E00070E0E0930402F0930502609306027093A7
:1018F0000702E0E0F0E060E87FE3E0930002F093AD
:1019000001026093020270930302E9ECFCE05E2E98
:101910006F2EE0ECFFEF7E2E8F2EA4E2B1E0E1E02F
:101920000E948F0EA4E2B1E00E94730EAE2EB6C0EC
:101930001A930A9300E010E0AA81A13011F00C94F0
:10194000EF0CA4E2B1E00E94730EA4E1B1E0F0E07C
:10195000EE0FFF1FAE0FBF1F0E946F0E5E2E6F2E89
:10196000A4E2B1E00E94730EACE1B1E0F0E0EE0F52
:10197000FF1FAE0FBF1F0E946F0E7E2E8F2EA4E2A0
:10198000B1E00E94730EA6E3B1E0F0E00E94250EE4
:10199000AE0FBF1F0E946B0EE0930402F09305028E
:1019A0006093060270930702A4E2B1E00E94730EF6
:1019B000A6E2B1E0F0E00E94250EAE0FBF1F0E942C
:1019C0006B0EE0930002F0930102609302027093A9
:1019D0000302A4E2B1E00E94730EAE2E5FC0A4E247
:1019E000B1E0E1E00E948F0EAE2E00E010E0043086
:1019F000E0E01E079CF5F801A6E3B1E00E94250E89
:101A0000AE0FBF1FE0E0F0E060E070E00E947F0EEC
:101A1000F801A6E2B1E00E94250EAE0FBF1FE0E084
:101A2000F0E060E87FE30E947F0EF801A4E1B1E0FE
:101A3000EE0FFF1FAE0FBF1FE9ECFCE00E94870E08
:101A4000F801ACE1B1E0EE0FFF1FAE0FBF1FE0ECFD
:101A5000FFEF0E94870E0F5F1F4FC9CFE0E0F0E05D
:101A600060E070E0E0930402F093050260930602E8
:101A700070930702E0E0F0E060E87FE3E0930002AB
:101A8000F09301026093020270930302E9ECFCE020
:101A90005E2E6F2EE0ECFFEF7E2E8F2E19810881D7
:101AA000239608952797E0E0E883E983EA83EB83B0
:101AB000EC8320E030E040E050E0EFEFFFEFDE2E7F
:101AC000EF2EA895AD81BE81EEEFFFEF0E94440E90
:101AD0000E2EAB81BC81EEEFFFE30E943E0EE029AB
:101AE000D9F0EB81FC81FA93EA930E944B03ED83DA
:101AF000FE830E942A0EEA83ED81E983EA81EA935C
:101B00000E945103E981EA930E945103EB81FC8119
:101B10003296EB83FC83D6CFED2DFE2DA6E4B1E00B
:101B20000E94870E72DBEDB5EEB578945F985E9AF1
:101B3000A6E4B1E00E946F0E0F01A8E4B1E00E949C
:101B40006F0EE015F10589F5A5E2B1E00E94730E74
:101B5000EA93EEDEF4DDE0917702F0917802FA93F9
:101B6000EA93E2E0EA930E943604C5DBE091C1000B
:101B7000F0E0E07CF070E061E093C1005B9AA89532
:101B8000F49B02C00E947204EFECE0937A00B3DB96
:101B90002A9AE0917702F0917802FA93EA93E2E0D0
:101BA000EA930E9436042A98EACFE091C100F0E05F
:101BB000E07CF070E061E093C1005B9AA895F49B33
:101BC00002C00E947204EFE0E0937A00E0E0F0E0EF
:101BD00060E070E0E0937302F0937402609375022A
:101BE0007093760288DB2A9AE0917702F09178026E
:101BF000FA93EA93E2E0EA930E9436042A98DECF51
:101C0000FFCFE991F991309631F08AE98A95F1F7A1
:101C1000A8953197D1F70895EA0FFB1F681F791F28
:101C20000895F09560957095E195FF4F6F4F7F4F48
:101C30000895EE230E2EFD01BC0131F075956795D8
:101C4000F795E7950A94D1F70895EE0FFF1FEE0F71
:101C5000FF1F0895EF2FFF27E7FDFFEF08956F2F78
:101C6000660F660B762F0895AE17E1E008F0EE27B9
:101C70000895EA17E1E008F0EE270895EA17FB0758
:101C8000E1E00CF4EE270895EA17FB07E1E008F421
:101C9000EE270895ED91FD916D917C911397089534
:101CA000ED93FD936D937C9308950590F491E02D51
:101CB0000895689401C0E89401D0A9D0182E862F09
:101CC000612D192E972F712D1B2EBF2FF12D1A2E3E
:101CD000AE2FE12D0895129602D0BF0112971196F2
:101CE00002D0FE2F1197F999FECFFF93FFB7F8941A
:101CF000A1BDB2BDF89AE0B5FFBFFF91089507D02E
:101D000012960F01FB0103D0F0011297089507D03E
:101D10001196EF93EF2F03D0EF9111970895F99B50
:101D200002C0A895FCCF9FB7F894A1BDB2BDF89AA8
:101D300080B5E81719F0E0BDFA9AF99A9FBF0895A7
:101D4000552342F4503811F4E0FF04C03196691F66
:101D5000791F6BF050E8572711F45F93C8C05F3FBD
:101D600031F0660F000C57956795752F08955F93B6
:101D700000200AF0C8C0C1C050E8192E1522880FF3
:101D8000991F9527550F879550E8072E0522660F56
:101D9000771F7527550F67950895689401C0E894DB
:101DA0005F93F2DF703818F07F3F08F4A0C056E16F
:101DB000571BAAF4519558300EF4593030F0EFEF1C
:101DC000FFEF6FEF7FE777F91AC077275523B9F058
:101DD000EE0FFF1F661F771F5A95D1F710C07727A8
:101DE000583028F0EF2FF62F672F5850F9CF552392
:101DF00031F076956795F795E7955A95D1F70020DC
:101E00000AF40FDF5F910895689401C0E894309759
:101E100060407040B1F0002426F0772312F4009463
:101E200000DF172E7EE1112032F07A95EE0FFF1FB2
:101E3000661F111CF9CFEF2FF62F612D5F938ADFFC
:101E40005F9108954F93AF01FD01DA01AB01BC0131
:101E5000CA01402D012C142E4F910895EA0FFB1F4B
:101E6000681F0895E095F0956095EF5FFF4F6F4F05
:101E700008955F9381DF903849F150E81526703856
:101E800021F1572F591B13F112F4DCDFFACF58312F
:101E900018F0AA27BB278827583028F0AB2FB82F77
:101EA00088275850F9CF552329F08695B795A795DF
:101EB0005A95D9F7502D512562F0D0DF38F4679547
:101EC000F795E795739513F41EC0BCDF43DF5F9170
:101ED0000895EA1BFB0B680B51F010F40094C2DF6D
:101EE0006623A2F3EE0FFF1F661F7A95CBF7EE274E
:101EF000FF27662777275F910895EFEFFFEF6FE7E2
:101F00007FEF5F910895EFEFFFEF6FE77FE75F915E
:101F100008955F9331DF703851F3903841F3012415
:101F20000894791F23F41CF300203AF3ECCF0F92AE
:101F30001F932F933F934F93112722279927689F31
:101F4000A0018F9F302D410D591F6B9F300D411DFA
:101F5000591F8E9F27D0BF9F25D06A9F23D0BE9F39
:101F60001DD0AF9F1BD0AE9F110D291F391F491FD8
:101F7000591FE32FF42F652F522F4F913F912F912F
:101F80001F910F9066232AF0550FEE1FFF1F661F4B
:101F900002C073954BF2D4DE5F910895100D211DA0
:101FA000391F02C0200D311D491F591F08955F932D
:101FB000E3DE703821F411200AF49FCFA4CF9038CB
:101FC00009F495CF01240894970B1BF4D4F3002057
:101FD000F3CF792F1F932F933F934F931124112702
:101FE000222733274427552790E2AE17BF078607DD
:101FF000410730F0AE1BBF0B860B410B089401C0AC
:102000008894551F221F331F111CAA1FBB1F881F36
:10201000441F9A9551F7F901612D4F913F912F91EE
:102020001F91662332F0550FEE1FFF1F661F7A9532
:1020300043F286DE5F91089599239AF0772342F068
:10204000971748F029F4AE17BF07860720F031F044
:10205000989488940895989408940895189488946E
:1020600008957723C2F7971798F3A9F7EA17FB07A4
:10207000680788F399F3ECCF00240A160B060806CC
:10208000090608955A934A933A932A931A930A9306
:1020900008955D814C813B812A81198108810895D1
:00000001FF
